:100000000C9446000C9465000C9465000C946500FB
:100010000C9465000C9465000C9465000C946500CC
:100020000C9465000C9465000C9465000C946500BC
:100030000C9465000C9465000C9465000C946500AC
:100040000C9465000C9465000C9465000C9465009C
:100050000C9465000C9465000C9465000C9465008C
:100060000C9465000C9465000C9465000C9465007C
:100070000C9465000C9465000C9465000C9465006C
:100080000C9465000C9465000C94650011241FBE4F
:10009000CFEFD0E4DEBFCDBF11E0A0E0B1E0E6EBF2
:1000A000F1E000E00BBF02C007900D92AE30B10747
:1000B000D9F711E0AEE0B1E001C01D92AF30B10759
:1000C000E1F70E94CC000C94D9000C940000CF936F
:1000D000C82F8A3019F48DE00E9467009091C0000B
:1000E00095FFFCCFC093C60080E090E0CF910895CB
:1000F00090B1917020B122708230A9F01CF481304F
:1001000019F404C08630C4F081E021C0992311F0B5
:10011000211114C0992311F0222391F0911117C0DD
:10012000211110C014C0911102C0222369F099233B
:1001300071F021110BC00BC082E009C085E007C03F
:1001400083E005C084E003C081E001C085E0833026
:1001500069F01CF4882331F01BC0843079F08530BD
:10016000A9F016C097E090930E0112C090910E0175
:10017000993070F49F5F90930E010AC090910E0128
:10018000992331F0915090930E0102C010920E010C
:1001900090910E0198B9089511B812B88FEF87B9F0
:1001A00018B880E090E00E947800992787FD90952C
:0601B000FACFF894FFCF26
:0E01B6000000000200000000670000000000D2
:00000001FF
