:100000000C9446000C9465000C9465000C946500FB
:100010000C9465000C9465000C9465000C946500CC
:100020000C9465000C9465000C9465000C946500BC
:100030000C9465000C9465000C9465000C946500AC
:100040000C9465000C9465000C9465000C9465009C
:100050000C9465000C9465000C9465000C9465008C
:100060000C9465000C9465000C9465000C9465007C
:100070000C9465000C9465000C9465000C9465006C
:100080000C9465000C9465000C94650011241FBE4F
:10009000CFEFD0E4DEBFCDBF11E0A0E0B1E0E4E8F7
:1000A000F1E000E00BBF02C007900D92AE30B10747
:1000B000D9F711E0AEE0B1E001C01D92AF30B10759
:1000C000E1F70E94B3000C94C0000C940000CF93A1
:1000D000C82F8A3019F48DE00E9467009091C0000B
:1000E00095FFFCCFC093C60080E090E0CF910895CB
:1000F00090B1813069F01CF4882331F017C0823050
:1001000061F0833081F012C09130C9F481E017C0F2
:10011000992371F0913071F412C0992381F09230DB
:1001200059F483E00CC0992354F408C080E007C060
:1001300082E005C080E003C080E001C080E0882349
:1001400019F0833039F00BC090910E019E7F90938F
:100150000E0105C090910E01916090930E01909157
:100160000E0195B9089511B88FEF82B984B915B809
:1001700080E090E00E947800992787FD9095FACF63
:04018000F894FFCF21
:0E018400000000020000000067000000000004
:00000001FF
